:020000040000FA
:060000000A128A11F62F1E
:100F3A0001348316031306083F388600080083121B
:100F4A00031388018316031388010A128A119E2744
:100F5A000A128A1108000A128A11A4270A128A118F
:100F6A0001300A128A11CC270A128A11F200720879
:100F7A00F3003F3073060319C32FC42FB52F73082C
:100F8A00831203138800B52F0A128A110028F10070
:100F9A007108031DD12FD22FD72F831203130608EE
:100FAA003F39F52F3F30831203130605F0003F3017
:100FBA0070060319E12FE22FE92F74080319E62FAF
:100FCA00E72FE92FF401D22F3F300605F0003F301A
:100FDA007006031DF12FF22FF42FF401F40A3F30AB
:100FEA0008000A128A119D270A128A11F400830145
:060FFA000A128A11B02F5B
:02400E00FB3F76
:00000001FF
