:020000040000FA
:060000000A128A11F62F1E
:100F240001348316031306083F3886000800831231
:100F3400031388018316031388010A128A11932765
:100F44000A128A110800F4010A128A1199270A1256
:100F54008A1101300A128A11CC270A128A11F2006E
:100F64007208F30074088312031388003E3073067A
:100F7400031DBD2FBE2FAB2F740A031DC22FC32F19
:100F8400C42FF4010130F2007208F407AB2F0A12E7
:100F94008A110028F1007108031DD12FD22FD72FF9
:100FA4008312031306083F39F52F3F3083120313CE
:100FB4000605F0003F3070060319E12FE22FE92FF8
:100FC40075080319E62FE72FE92FF501D22F3F30DB
:100FD4000605F0003F307006031DF12FF22FF42FA9
:100FE400F501F50A3F3008000A128A1192270A1205
:0C0FF4008A11F50083010A128A11A52F52
:02400E00FB3F76
:00000001FF
