:060000000A128A110C280F
:10000800FE00030EF0000A08F1000A168A110A2EF3
:100018000A128A110F288313B230FD001530FE0032
:100028002430FF00A03084000A168A113A250A12EB
:100038008A110A128A11FF270A128A11EF00831601
:100048000313B201B301B401B50183120313E10133
:10005800E201E301E401E501E601E701E801E90164
:10006800EA01EB01EC01FA01FB0183010A128A158E
:10007800992C83120313DB000A168A118B260A12A5
:100088008A111230831203136D06031D4C284D2864
:10009800E9290A168A1117250A128A11FC30F60076
:1000A8009030F7008030F8000A168A11DB250A1212
:1000B8008A117B0883120313D4005407AA3E8400D4
:1000C80083130008F600840A00088403F7008630CA
:1000D800F8000A168A11DB250A128A111730F60071
:1000E8009130F700C030F8000A168A11DB250A1291
:1000F8008A11C63083120313A0000A30F2000030C0
:10010800F3006B08D400D5015408F4005508F50035
:100118000A168A1199270A128A117208303E0A12A1
:100128008A1509200A128A11C73083120313A00006
:100138000A30F2000030F3006B08D400D5015408EF
:10014800F4005508F5000A168A11E1260A128A11E8
:100158007208303E0A128A1509200A128A11C8301C
:1001680083120313A0003A300A128A1509200A12D2
:100178008A11C93083120313A0000A30F20000303C
:10018800F3006C08D400D5015408F4005508F500B4
:100198000A168A1199270A128A117208303E0A1221
:1001A8008A1509200A128A11CA3083120313A00083
:1001B8000A30F2000030F3006C08D400D50154086E
:1001C800F4005508F5000A168A11E1260A128A1168
:1001D8007208303E0A128A1509200A128A11F43070
:1001E800F6009030F7009530F8000A168A11DB25E2
:1001F8000A128A11333083120313D600BB30D5009C
:10020800DF30D400D40B0629D50B0629D60B0629D6
:100218000A168A1117250A128A11DF30F600903063
:10022800F7008030F8000A168A11DB250A128A11B5
:100238002F30F6009130F700C030F8000A168A1106
:10024800DB250A128A114430F6009030F700D030CE
:10025800F8000A168A11DB250A128A118312031381
:100268006B08D400D5015408F2005508F3003C305F
:10027800F4000030F5000A168A118D250A128A1139
:10028800831203136C087207E3000030031801306F
:100298007307E4006408E2006308E1006308F20001
:1002A8006408F3000030F31BFF30F400F500013060
:1002B8000A128A1129270A128A1175088312031350
:1002C800AD007408AC007308AB007208AA003E3099
:1002D800A900CC30A800CC30A700CD30A6000A1267
:1002E8008A11E4230A128A11831203132908C3000E
:1002F8002808C2002708C1002608C0000A128A156B
:1003080096200A128A11831203134108E800400854
:10031800E7006308F2006408F3000030F31BFF30C5
:10032800F400F50001300A128A1129270A128A11ED
:10033800750883120313AD007408AC007308AB0092
:100348007208AA003D30A900F530A800C230A70005
:100358008F30A6000A128A11E4230A128A11831226
:1003680003132908C3002808C2002708C10026086B
:10037800C0000A128A1596200A128A1183120313E2
:100388004108E6004008E5006709D4006809D5007F
:10039800D40A0319D50A65085402D6006608031C56
:1003A800660A5502D7006308560783160313B4007C
:1003B8008312031364080318640A57078316031388
:1003C800B50083120313121507151F305B06031DB2
:1003D800EE29EF29F329121107110530EE006B08F9
:1003E800D400D5015408F2005508F3003C30F4005D
:1003F8000030F5000A168A118D250A128A11831217
:1004080003136C087207E300003003180130730708
:10041800E40008307B020318122A132A742A67089A
:100428006102D4006808031C680A6202D5006408E7
:10043800803AD6005508803A5602031D252A5408EA
:100448006302031C282A292A352A3930F6009130FC
:10045800F7008B30F8000A168A11DB250A128A1178
:10046800292B831203136709D4006809D500D40A1D
:100478000319D50A65085402D6006608031C660AE3
:100488005502D70061085607D80062080318620AA7
:100498005707D9006408803ADA005908803A5A02A6
:1004A800031D582A58086302031C5B2A5C2A682A21
:1004B8001D30F6009130F7008B30F8000A168A11CB
:1004C800DB250A128A11292B1130F6009130F7002A
:1004D8008B30F8000A168A11DB250A128A11292B9B
:1004E80008307B06031D792A7A2A0C2B6308F20050
:1004F8006408F3000030F31BFF30F400F50001300E
:100508000A128A1129270A128A11750883120313FD
:10051800CB007408CA007308C9007208C8006108D3
:10052800F2006208F3000030F31BFF30F400F5001E
:1005380001300A128A1129270A128A1175088312B2
:100548000313C7007408C6007308C5007208C40006
:100558006108F2006208F3000030F31BFF30F4007A
:10056800F50001300A128A1129270A128A11750822
:1005780083120313AD007408AC007308AB00720853
:10058800AA003E30A900CC30A800CC30A700CD305E
:10059800A6000A128A11E4230A128A11831203138D
:1005A8002908C3002808C2002708C1002608C0007F
:1005B8000A168A1169250A128A118312031343083D
:1005C800CF004208CE004108CD004008CC000A12F6
:1005D8008A150E210A128A11031CF32AF42A002B09
:1005E8001D30F6009130F7008B30F8000A168A119A
:1005F800DB250A128A11292B1130F6009130F700F9
:100608008B30F8000A168A11DB250A128A11292B69
:1006180009307B06031D112B122B1E2B1D30F600F3
:100628009130F7008B30F8000A168A11DB250A1280
:100638008A11292B3930F6009130F7008B30F800F9
:100648000A168A11DB250A128A11C630831203138F
:10065800A0000A30F2000030F3006B08D400D50186
:100668005408F4005508F5000A168A1199270A1249
:100678008A117208303E0A128A1509200A128A1154
:10068800C73083120313A0000A30F2000030F300D1
:100698006B08D400D5015408F4005508F5000A1673
:1006A8008A11E1260A128A117208303E0A128A1546
:1006B80009200A128A11C83083120313A0003A30A5
:1006C8000A128A1509200A128A11C93083120313E3
:1006D800A0000A30F2000030F3006C08D400D50105
:1006E8005408F4005508F5000A168A1199270A12C9
:1006F8008A117208303E0A128A1509200A128A11D4
:10070800CA3083120313A0000A30F2000030F3004D
:100718006C08D400D5015408F4005508F5000A16F1
:100728008A11E1260A128A117208303E0A128A15C5
:1007380009200A128A11831203136C08031DA52BC2
:10074800A62BE32B6B08031DAA2BAB2BE32B121153
:10075800071187140A168A1117250A128A1166309A
:10076800F6009030F7008030F8000A168A11DB2571
:100778000A128A118630F6009030F700C030F8006F
:100788000A168A11DB250A128A11333083120313E1
:10079800D600BB30D500DF30D400D40BD12BD50B1D
:1007A800D12BD60BD12B831203138710EE01EE0A3F
:1007B8001030ED000A168A1117250A128A1108004E
:1007C8008312031329088039B3002908AE002E07C5
:1007D800B900A81FF02BF12BF22B39143908031993
:1007E800F62BF72B062C390A031DFB2BFC2B042CAC
:1007F8000030A9000030A8000030A7000030A60093
:10080800A8170E2C0030A9000030A8000030A7005F
:100818000030A6002D088039FF007F08B3062D0898
:10082800AE002E07B400AC1F1A2C1B2C1C2C341441
:1008380034080319202C212C302C340A031D252CB4
:10084800262C2E2C0030AD000030AC000030AB0060
:100858000030AA00AC17382C0030AD000030AC00D6
:100868000030AB000030AA00340803193C2C3D2CA2
:10087800422C3908031D412C422C4B2C0030A90076
:100888000030A8000030A7000030A600282F260856
:10089800F2002C080A168A11B2250A128A11730866
:1008A80083120313BF007208BE003E08AE00AF01FA
:1008B800B001B1013108B8003008B7002F08B60000
:1008C8002E08B5003F08AE00AF01B001B1013108F4
:1008D800BD003008BC002F08BB002E08BA0027084E
:1008E800F2002B080A168A11B2250A128A11730817
:1008F80083120313BF007208BE003E08AE00AF01AA
:10090800B001B1012E08B5072F0803110318013EE5
:1009180003198F2CB607300803110318013E031979
:10092800962CB707310803110318013E03199D2CB3
:10093800B8073F08AE00AF01B001B1012E08BA07F1
:100948002F0803110318013E0319AB2CBB0730080D
:1009580003110318013E0319B22CBC073108031117
:100968000318013E0319B92CBD072808F2002A080C
:100978000A168A11B2250A128A1173088312031300
:10098800BF007208BE003E08AE00AF01B001B10161
:100998002E08B5072F0803110318013E0319D52C9B
:1009A800B607300803110318013E0319DC2CB707FA
:1009B800310803110318013E0319E32CB8073F0857
:1009C800AE00AF01B001B1012E08BA072F0803111C
:1009D8000318013E0319F12CBB0730080311031853
:1009E800013E0319F82CBC07310803110318013E16
:1009F8000319FF2CBD070830AE000310B50DB60D66
:100A0800B70DB80DAE0B012D2708F2002A080A16FB
:100A18008A11B2250A128A11730883120313BF00C0
:100A28007208BE003E08AE003F08AF00B001B10139
:100A38002E08B5072F0803110318013E0319252DA9
:100A4800B607300803110318013E03192C2DB70708
:100A5800310803110318013E0319332DB80726087E
:100A6800F2002B080A168A11B2250A128A11730895
:100A780083120313BF007208BE003E08AE003F0891
:100A8800AF00B001B1012E08B5072F0803110318F4
:100A9800013E0319502DB607300803110318013E13
:100AA8000319572DB707310803110318013E03191D
:100AB8005E2DB8070830AE000310B50DB60DB70DA2
:100AC800B80DAE0B602D2608F2002A080A168A1106
:100AD800B2250A128A11730883120313BF00720821
:100AE800BE003E08AE003F08AF00B001B1012E08BD
:100AF800B5072F0803110318013E0319842DB60703
:100B0800300803110318013E03198B2DB70731086C
:100B180003110318013E0319922DB8072708F200A4
:100B28002C080A168A11B2250A128A117308831230
:100B38000313BF007208BE003E08AE003F08AF00B6
:100B4800B001B1012E08BA072F0803110318013E9E
:100B58000319AF2DBB07300803110318013E031911
:100B6800B62DBC07310803110318013E0319BD2D2A
:100B7800BD072808F2002B080A168A11B2250A12A6
:100B88008A11730883120313BF007208BE003E085F
:100B9800AE003F08AF00B001B1012E08BA072F0818
:100BA80003110318013E0319DA2DBB07300803119E
:100BB8000318013E0319E12DBC073108031103187E
:100BC800013E0319E82DBD072808F2002C080A1673
:100BD8008A11B2250A128A11730883120313BF00FF
:100BE8007208BE003E08AE003F08AF00B001B10178
:100BF80008300310AE0DAF0DB00DB10DFF3E031D53
:100C0800FD2D2E08BA072F0803110318013E0319FA
:100C18000E2EBB07300803110318013E0319152EC9
:100C2800BC07310803110318013E03191C2EBD0728
:100C38003508AE003608AF003708B0003808B100F4
:100C480018300310B10CB00CAF0CAE0CFF3E031DF6
:100C5800252E2E08BA072F0803110318013E031981
:100C6800362EBB07300803110318013E03193D2E29
:100C7800BC07310803110318013E0319442EBD07B0
:100C88000830AE000310B50DB60DB70DB80DAE0B9C
:100C9800462E39083407AE00AF01AF0D2E08823E4C
:100CA800BE002F080318013EFF3EBF00782E01301A
:100CB800AE000310BA0DBB0DBC0DBD0DAE0B5D2E05
:100CC800B81F672E682E692E3A140130AE00031043
:100CD800B50DB60DB70DB80DAE0B6B2EFF30BE07B8
:100CE8000318BF0AFF30BF07BC1F7B2E7C2E5B2E6C
:100CF800B401B81F802E812E9D2EFF303505AE0021
:100D0800FF303605AF00FF303705B0007F303805BB
:100D1800B100310830042F042E040319942E952EA7
:100D2800982EB401B40A9D2E3A1C9B2E9C2E9D2E03
:100D3800952E34080319A12EA22ED32E0130BA07FE
:100D4800003003180130BB07003003180130BC071E
:100D5800003003180130BD073D1CB32EB42ED32E2E
:100D68003A08AE003B08AF003C08B0003D08B100AF
:100D78000130B200310DB10CB00CAF0CAE0CB20B9F
:100D8800BE2E3108BD003008BC002F08BB002E085D
:100D9800BA000130BE070318BF0A0030BF073F087A
:100DA800803AFF0080307F02031DDC2EFF303E02B8
:100DB800031CDF2EE02EEB2E7F3083120313BD00C1
:100DC8008030BC000030BB000030BA001C2F8312FA
:100DD80003133F08803AFF0080307F02031DF62E80
:100DE80001303E020318F92EFA2E062F0030831226
:100DF8000313BD000030BC000030BB000030BA0057
:100E0800B3011C2F831203133E08B900FF30BA0543
:100E1800FF30BB057F30BC050030BD05391C152FE0
:100E2800162F172FBC173908AE0003102E0CBD0063
:100E38003308FF007F08BD043D08A9003C08A8004E
:100E48003B08A7003A08A600080083120313A00075
:100E580020080319302F312F452FF51F342F352F38
:100E6800452F7209A2007309A3007409A40075092B
:100E7800A500A20A0319A30A0319A40A0319A50ABB
:100E88004D2F7508A5007408A4007308A300720804
:100E9800A2007508740473047204031D542F552F9F
:100EA8005E2F0030F5000030F4000030F300003011
:100EB800F200E22F9630A1006E2F0130FF007F086C
:100EC800A10701300310A50CA40CA30CA20CFF3E33
:100ED800031D662FFE302505031D732F742F612F08
:100EE800902F0130FF007F08A1070130A2070030D2
:100EF80003180130A307003003180130A40700309D
:100F080003180130A50701300310A50CA40CA30C8D
:100F1800A20CFF3E031D882FFF302505031D952FCA
:100F2800962F752FA22F0130A1020130F600031071
:100F3800A20DA30DA40DA50DF60B9B2FA41BA52F89
:100F4800A62FAC2F023021020318AB2FAC2F972FFE
:100F58002118AF2FB02FB82FFF30A205FF30A305FF
:100F68007F30A405FF30A5050310A10C2108F60069
:100F7800F701F801F90118300310F60DF70DF80D17
:100F8800F90DFF3E031DC02F7608A2047708A304BD
:100F98007808A4047908A50420080319D42FD52FAC
:100FA800DA2FF51FD82FD92FDA2FA5172508F50026
:100FB8002408F4002308F3002208F20008000A16A7
:100FC8008A11FF240A128A110A128A11F9270A12B1
:100FD8008A110A168A110A250A128A11831603131E
:100FE800071187100B178B170800831603130608C1
:080FF8003F38860008000134B7
:1010120083120313A100F20120080A168A1149253E
:101022000A128A15F201F20A8312031321080A1620
:101032008A1149250A128A15080083120313A50191
:101042002508803EA000FF300A128A1509200A12E4
:101052008A15033083120313A4008A30A30055308B
:10106200A200A20B3228A30B3228A40B3228013093
:10107200FF007F0883120313A50710302502031C0B
:101082004328442821281130F6009030F700C03060
:10109200F8000A168A11DB250A128A153330F60087
:1010A2009030F7009030F8000A168A11DB250A12F8
:1010B2008A15103083120313A6002608D03EA00022
:1010C200FF300A128A1509200A128A150330831288
:1010D2000313A4008A30A3005530A200A20B6F288C
:1010E200A30B6F28A40B6F28013083120313A602EF
:1010F2002608031D7D287E285E28D030A000FF3000
:101102000A128A1509200A128A150D308312031356
:10111200A400AF30A300B530A200A20B8E28A30B0F
:101122008E28A40B8E28952808000310831203131F
:10113200420D430DC9004908031DA028A128AA2871
:101142000030C3000030C2000030C1000030C000D7
:101152000D294008C4004108C5004208C6004308E2
:10116200C7001F300310C70CC60CC50CC40CFF3ED1
:10117200031DB3284408C800C217FF30C005FF3062
:10118200C105FF30C2050030C3059630C902C91F30
:10119200CB28CC28E6284908803A973E0318D22863
:1011A200D328D428A12801300310C30CC20CC10CCF
:1011B200C00CFF3E031DD5280130FF007F08C90780
:1011C200031DE428E528D428FD2820304902031C09
:1011D200EB28EC28F828A1280130C4000310C00D28
:1011E200C10DC20DC30DC40BEF280130C90249085D
:1011F200031DFC28FD28ED284808031901290229AE
:101202000D29C009C109C209C309C00A0319C10ACB
:101212000319C20A0319C30A080000308312031318
:101222004805D00000304905D10080304A05D2007F
:101232007F304B05D3005308520451045004031D60
:10124200232924292C290030CB000030CA00003089
:10125200C9000030C80000304C05D00000304D05F8
:10126200D10080304E05D2007F304F05D3005308A5
:10127200520451045004031D3F29402948290030DB
:10128200CF000030CE000030CD000030CC00CB1FAC
:101292004B294C2970290030D0000030D100003099
:1012A200D2008030D3004808D0024908031C490FFD
:1012B2005B295C29D1024A08031C4A0F6129622971
:1012C200D2024B08031C4B0F67296829D30253082B
:1012D200CB005208CA005108C9005008C800CF1FED
:1012E2007329742998290030D0000030D1000030D1
:1012F200D2008030D3004C08D0024D08031C4D0FA1
:1013020083298429D1024E08031C4E0F89298A2978
:10131200D2024F08031C4F0F8F299029D302530882
:10132200CF005208CE005108CD005008CC008030CA
:10133200CB068030CF064F084B02031DAA294E0868
:101342004A02031DAA294D084902031DAA294C0875
:1013520048020318AD29AE29B0290310B12903149C
:10136200080083120313A40010306D06031DBA296E
:10137200BB29C1290A168A1117250A128A15FB01EF
:101382003730831203132406031DC829C929D9291A
:101392000130FF007F08FB070C307B06031DD229BA
:1013A200D329D429FB010A168A1117250A128A1594
:1013B2007630F6009030F7008030F8000A168A1175
:1013C200DB250A128A15C03083120313A0003E30B7
:1013D2000A128A1509200A128A150A307B0203189A
:1013E200F329F429342A7B0883120313A20022076B
:1013F200AA3E840083130008F600840A00088403CE
:10140200F700C230F8000A168A11DB250A128A1583
:101412007B0883120313A2002207AC3E84008313CD
:101422000008F600840A00088403F7009230F800EE
:101432000A168A11DB250A128A157B088312031306
:10144200A2002207AE3E840083130008F600840A3D
:1014520000088403F700D230F8000A168A11DB254F
:101462000A128A15A72A0A307B06031D392A3A2A4C
:10147200722A7B0883120313A2002207AA3E840069
:1014820083130008F600840A00088403F700C230C0
:10149200F8000A168A11DB250A128A157B088312C4
:1014A2000313A2002207AC3E840083130008F60057
:1014B200840A00088403F7009230F8000A168A11A1
:1014C200DB250A128A15831603132A08F6002B0855
:1014D200F700D230F8000A168A11DB250A128A15A3
:1014E200A72A0B307B06031D772A782AA72A7B08B6
:1014F20083120313A2002207AA3E8400831300086A
:10150200F600840A00088403F700C230F8000A16C5
:101512008A11DB250A128A15831603132A08F6009C
:101522002B08F7009230F8000A168A11DB250A12FE
:101532008A15831603132C08F6002D08F700D23003
:10154200F8000A168A11DB250A128A15080083128E
:101552000313A40011306D06031DB02AB12AB72A65
:10156200FA010A168A1117250A128A1537308312D0
:1015720003132406031DBE2ABF2ACF2A0130FF000F
:101582007F08FA0705307A06031DC82AC92ACA2A23
:10159200FA010A168A1117250A128A15D330F600A3
:1015A2009030F7008030F8000A168A11DB250A1203
:1015B2008A15C03083120313A0003E300A128A1526
:1015C20009200A128A1503307A020318E92AEA2A44
:1015D2002A2B7A0883120313A2002207A03E84005A
:1015E20083130008F600840A00088403F700C2305F
:1015F200F8000A168A11DB250A128A157A08831264
:101602000313A2002207A23E840083130008F600FF
:10161200840A00088403F7009230F8000A168A113F
:10162200DB250A128A157A0883120313A200220705
:10163200A43E840083130008F600840A0008840391
:10164200F700D230F8000A168A11DB250A128A1531
:101652009D2B03307A06031D2F2B302B682B7A0823
:1016620083120313A2002207A03E84008313000802
:10167200F600840A00088403F700C230F8000A1654
:101682008A11DB250A128A157A0883120313A20033
:101692002207A23E840083130008F600840A000891
:1016A2008403F7009230F8000A168A11DB250A1229
:1016B2008A15831603132008F6002108F700D2309A
:1016C200F8000A168A11DB250A128A159D2B0430AE
:1016D2007A06031D6D2B6E2B9D2B7A088312031342
:1016E200A2002207A03E840083130008F600840AA9
:1016F20000088403F700C230F8000A168A11DB25BD
:101702000A128A15831603132008F6002108F7002F
:101712009230F8000A168A11DB250A128A158316FE
:1017220003132208F6002308F700D230F8000A1645
:101732008A11DB250A128A150800722C21308312C5
:101742000313EC00EB01982C293083120313EC00F5
:10175200A32B2D3083120313EC00A32B7A08003A3B
:101762000319A52B013A03199F2B033A0319A52B41
:10177200013A0319AA2B073A0319AA2B982C2B30EA
:1017820083120313EC00EB01323083120313EC00DB
:10179200EB01982C393083120313EC00A32B7A0847
:1017A200003A0319C52B013A0319C02B033A031956
:1017B200C52B013A0319CB2B073A0319CB2B982CD3
:1017C2001A3083120313EC00A32B1F30831203136E
:1017D200EC00A32B7A08003A0319E12B013A031912
:1017E200E12B033A0319E12B013A0319E62B073ADD
:1017F2000319E62B982C103083120313EC00EB0133
:10180200EB0A982C243083120313EC00EB01EB0A51
:101812001C3083120313EC00A32B1D30831203131D
:10182200EC00982C2E3083120313EC00EB013530C0
:1018320083120313EC00EB01982C3C308312031348
:10184200EC00A32B7A08003A0319182C013A031969
:10185200132C033A0319182C013A03191E2C073AC8
:1018620003191E2C982C123083120313EC00EB0187
:101872003A2C143083120313EC00EB01982C7A08F3
:10188200003A03193A2C013A0319342C033A03198A
:101892003A2C013A03193A2C073A03193A2C982C9C
:1018A200063083120313EC00982C103083120313BA
:1018B200EC00EB01153083120313EC00EB01982CC2
:1018C2007A08003A03195B2C013A0319562C033AA1
:1018D20003195B2C013A0319E12B073A0319E12B97
:1018E200982C7B08003A0319AF2B013A0319D02B2D
:1018F200033A0319EB2B013A0319FC2B073A03199C
:10190200032C013A0319092C033A03190E2C013A4C
:101912000319232C0F3A0319402C013A0319512CB5
:10192200033A0319612C013A0319612C982C08001F
:1019320083120313EE01EE0A1030ED000A128A112F
:10194200E3270A128A152230F6009030F700803021
:10195200F8000A168A11DB250A128A150030F600F1
:101962009030F700C030F8000A168A11DB250A12FF
:101972008A155530F6009030F7009030F8000A16BC
:101982008A11DB250A128A15DA2CB8308312031366
:10199200DC000B30DD00FF30DC070318DD0AFF300E
:1019A200DD075C0A031DD92C5D0A031DD92CDA2C34
:1019B200CC2C01300A168A113A270A128A152F3ABC
:1019C200031DE42CE52CC62C0A168A1117250A12CF
:1019D2008A150A128A151E200A128A1501300A1661
:1019E2008A113A270A128A1583120313E000B830CB
:1019F200DE000B30DF00FF30DE070318DF0AFF30A6
:101A0200DF075E0A031D092D5F0A031D092D0A2D3A
:101A1200FC2CB7306006031D0F2D102D1A2D6E03FE
:101A2200031D142D152D1A2D0230EE001130ED007C
:101A3200932DB7306006031D1F2D202D562D023029
:101A42006E06031D252D262D562D0A128A159E235C
:101A52000A128A150A168A1117250A128A15AE3039
:101A6200F6009030F7008030F8000A168A11DB2564
:101A72000A128A159430F6009030F700C030F80050
:101A82000A168A11DB250A128A15BB30F60090303D
:101A9200F7009030F8000A168A11DB250A128A151F
:101AA200033083120313EE00932D2F306006031DC3
:101AB2005B2D5C2D672D05306E06031D612D622D99
:101AC200672D121507150430EE00932D932D600833
:101AD2000A128A15B2210A128A15A12D60080A1269
:101AE2008A15A8220A128A15A12D2F306006031D1D
:101AF2007B2D7C2D812D0430EE001230ED00EF2C79
:101B02001F306006031D862D872DA12DEE01EE0AE2
:101B12001030ED00EF2C60080A128A113D200A12E3
:101B22008A15A12D6E08013A0319682D033A03198B
:101B32006F2D013A0319762D073A03198C2DA12D29
:101B420083120313ED01EF2C0A128A110C28750877
:101B5200803983120313A8007508A0002007AA0089
:101B6200F41FB42DB52DB62D2A142A080319BA2D47
:101B7200BB2DCB2D2A0A031DBF2DC02DC82D003031
:101B8200F5000030F4000030F3000030F200F417EA
:101B9200F501D32D0030F5000030F4000030F300E1
:101BA2000030F20079088039A900290828060319B3
:101BB200DB2DDC2DDD2D28177908A0002007A900D8
:101BC200F81FE42DE52DE62D291429080319EA2D25
:101BD200EB2DFB2D290A031DEF2DF02DF82D0030E2
:101BE200F9000030F8000030F7000030F600F81776
:101BF200F901032E0030F9000030F8000030F70040
:101C02000030F6002A0829020318082E092E2F2E6A
:101C1200281F0C2E0D2E112E8030FF007F08A806E3
:101C22002A08AB002908AA002B08A9007208AB00F9
:101C32007608F2002B08F6007308AB007708F30071
:101C42002B08F7007408AB007808F4002B08F800A2
:101C52007508AB007908F5002B08F900AB012908DB
:101C6200A000A1012108A3002A082002A200031C4F
:101C7200A3032308803AFF0080307F02031D432E16
:101C82001A302202031C462E472E7E2E750874043B
:101C920073047204031D4E2E502E0130512E00305B
:101CA20083120313AB000030F5000030F400003063
:101CB200F3000030F2002908AA00862E2B1C622EA7
:101CC200632E6A2E2B08A0000310200C0138AB00F3
:101CD2006C2E0310AB0C721C6F2E702E712EAB1774
:101CE2000130A000750DF50CF40CF30CF20CA00BF6
:101CF200732E0130FF007F08AA07831203132908FD
:101D02002A02031C852E862E5F2E281B892E8A2EE0
:101D1200D32E2A08031D8E2E8F2E982E0030F5000A
:101D22000030F4000030F3000030F200FF2F76089C
:101D3200F207770803110318013E0319A12EF307D6
:101D4200780803110318013E0319A82EF407790835
:101D520003110318013E0319AF2EF507751CB22EAD
:101D6200B32E872F2B1CB62EB72EBE2E2B08A0000B
:101D72000310200C0138AB00C02E0310AB0C721CF8
:101D8200C32EC42EC52EAB170130A000750DF50C65
:101D9200F40CF30CF20CA00BC72E0130FF007F08ED
:101DA200AA07872F7508803AFF007908803A7F02D8
:101DB200031DE52E78087402031DE52E77087302D1
:101DC200031DE52E760872020318E82EE92E412F34
:101DD200FF30A000FF30A100FF30A200FF30A300BF
:101DE2007608A4007708A5007808A6007908A7005D
:101DF2007208A4027308031C730F002F012FA5029F
:101E02007408031C740F062F072FA6027508031C03
:101E1200750F0C2F0D2FA7022408A0072508031801
:101E2200250F142F152FA10726080318260F1A2F86
:101E32001B2FA20727080318270AA3072308F50068
:101E42002208F4002108F3002008F2008030FF008D
:101E52007F08A806AB09AB0A2B08031D312F322FCE
:101E62004F2F0130F207003003180130F307003022
:101E720003180130F407003003180130F5074F2F23
:101E82007608F2027708031C770FF3027808031C26
:101E9200780FF4027908031C790FF50275087404AF
:101EA20073047204031D562F572F832F2B08031D13
:101EB2005B2F5C2F832F0030F5000030F4000030E0
:101EC200F3000030F200FF2F0130A0000310F20DEA
:101ED200F30DF40DF50DA00B672FAB1F712F722FB1
:101EE200732F72142B1C762F772F7A2F0314AB0DBE
:101EF2007C2F0310AB0D2A080319802F812F832F0B
:101F02000130AA02F41F862F872F652FA901AB1F6C
:101F12008B2F8C2F9A2F2B087F390319912F922FF9
:101F2200952FA901A90A9A2F721C982F992F9A2FDF
:101F3200922F290803199E2F9F2FD32F0130F207CA
:101F4200003003180130F307003003180130F407A2
:101F5200003003180130F507751CB02FB12FD32FB5
:101F62007208A0007308A1007408A2007508A300FB
:101F72000130A400230DA30CA20CA10CA00CA40BF5
:101F8200BB2F2308F5002208F4002108F3002008E3
:101F9200F2002A0A0319CE2FCF2FD32F0130FF00D0
:101FA2007F08AA072A0A0319D72FD82FDD2F2A085C
:101FB200031DDC2FDD2FEB2F0030F5000030F40085
:101FC2000030F3000030F2002A08031DE92FEA2F47
:101FD200EB2FA8012A1CEE2FEF2FF12FF417F52F6C
:101FE2007F30FF007F08F4052A08A0000310200CB0
:101FF200F500A81FFD2FFE2FFF2FF5170800203434
:1020020020342034203450346F34773465347234C1
:1020120020344F344E3420342034203420340034E1
:102022002034203450344F345734453452344934F8
:102032004E34473420344F344E342034203420344C
:1020420000342034503472346534733473342034A1
:102052004B34653479343534203454346F3420347D
:102062002034003420345734413453344834493412
:102072004E34473420344D344134433448344934A7
:102082004E344534003435342D34533454344134D1
:10209200523454342034203436342D3450344134C4
:1020A2005534533445340034203457346134733456
:1020B200683469346E34673420344D3461346334A7
:1020C200683469346E3465340034503472346F3499
:1020D20067342E34203443346F346D3470346C34AE
:1020E2006534743465346434003457346134733481
:1020F200683469346E3467342034503472346F3447
:102102006734723461346D340034523465346D3462
:102112006F3476346534203443346C346F34743421
:1021220068347334003420345334573435343A34F9
:10213200203453345434413452345434203400342F
:1021420050346C3465346134733465342034433430
:102152006C346F3473346534003450347234653403
:1021620073347334203453347734693474346334BD
:102172006834003420345334573436343A342034FB
:10218200533454344F3450342034003444344F34B4
:102192004F34523420343A3420344F34503445349E
:1021A2004E3400345734613474346534723420341C
:1021B2004C346534763465346C34003446347534CA
:1021C2006E346334743469346F346E3420342D3495
:1021D2000034443465346C346934633461347434A7
:1021E20065347334003428344D344D343A34533426
:1021F200533429340034503472346F3467343A34EF
:10220200203400344D3465346434693475346D34AB
:1022120000345734683469347434653473340034A8
:102222005334703469346E34203400345434693495
:102232006D3465343A340034523469346E34733454
:10224200653400344434613469346C347934003494
:102252004834653461347634793400345434493442
:102262004D344534003448346934673468340034BA
:1022720057346134733468340034413475347434FF
:102282006F3400344C346F34773400344D3461345D
:1022920078340034FF1B552983137F1883170008F5
:1022A200840A0319FF0A08007F087F398A0004089C
:0822B200840A0319FF0A8200EF
:1029FE00831603138801091189100A168A114426B9
:102A0E000A168A1108008312031312149214FA3054
:102A1E008316031392008C148312031312110800F1
:102A2E00F20101300A168A1149250A168A11A630BA
:102A3E00F600F60B202D000008003E34913443348E
:102A4E0091340334913434349134473491342334F3
:102A5E00913429349134EA3490340A3491347E0816
:102A6E008A007F0882000A168A1136250A168A11F4
:102A7E008000840A04087D0603190034FF0A031936
:102A8E00FE0A3A2DF50072184D2D512D83120313A7
:102A9E000915542D83120313091175088800891422
:102AAE00A630F300F30B592D000083120313891087
:102ABE001B30F4009E30F300F30B632DF40B632DEB
:102ACE0000000800803083120313C3064708F50088
:102ADE004608F4004508F3004408F2004308F900E4
:102AEE004208F8004108F7004008F6000A128A155D
:102AFE00A8250A168A11750883120313C3007408D9
:102B0E00C2007308C1007208C0000800F601F70188
:102B1E00721C922D932D992D7408F6070318F70A3F
:102B2E007508F70701300310F40DF50DFF3E031D78
:102B3E009A2D01300310F30CF20CFF3E031DA12D54
:102B4E0072087304031DAC2DAD2D8F2D7708F30085
:102B5E007608F200080083120313A400A001A1015D
:102B6E007208F400F5017408A2007508A300241C75
:102B7E00C12DC22DC82D2208A0070318A10A2308B3
:102B8E00A10701300310A20DA30DFF3E031DC92D99
:102B9E000310A40C2408031DD52DD62DBE2D2108FF
:102BAE00F3002008F2000800F20178080A168A11D4
:102BBE0049250A168A11F92DF201F20A7708FF004B
:102BCE00760884000A168A114B210A168A110A16F3
:102BDE008A1149250A168A110130F6070318F70AD9
:102BEE000030F707770883120313FF00760884007E
:102BFE000A168A114B210A168A11003A031D082E55
:102C0E00092EE32D0800831203138C1C0F2E102E99
:102C1E003D2E013083160313B2070318B30A00309A
:102C2E00B307E2303206043003193306031D202E9B
:102C3E00212E3B2EB201B301831203136C0803192C
:102C4E00292E2A2E2D2E0130EC023B2E6C08031D50
:102C5E00312E322E3B2E6B080319362E372E3B2E7D
:102C6E000130EB023B30EC0083128C1071088A00AD
:102C7E00700E8300FE0E7E0E0900C330F700CD30BD
:102C8E00F600F60B482EF70B482EF20133300A16DB
:102C9E008A1149250A168A111B30F7009E30F6005C
:102CAE00F60B572EF70B572E0000F20133300A1693
:102CBE008A1149250A168A11A630F600F60B652EE2
:102CCE000000F20133300A168A1149250A168A11BC
:102CDE00702E712E0000F20101300A168A1149255C
:102CEE000A168A11A630F600F60B7B2E0000F201B2
:102CFE000C300A168A1149250A168A11A630F600DA
:102D0E00F60B872E00000800831203130618902E70
:102D1E00912EE02E8714071112110A168A1117250B
:102D2E000A168A11C730F6009030F7008030F8008E
:102D3E000A168A11DB250A168A11A130F600903088
:102D4E00F7009030F8000A168A11DB250A168A1150
:102D5E0083120313061CB42EB52EAF2E0A168A113B
:102D6E0017250A168A1183120313071512158710D9
:102D7E00DF30F6009030F7008030F8000A168A1126
:102D8E00DB250A168A112F30F6009130F700C0307D
:102D9E00F8000A168A11DB250A168A114430F6004D
:102DAE009030F700D030F8000A168A11DB250A168B
:102DBE008A110800F701F51FE52EE62EED2EF40917
:102DCE00F509F40A0319F50AF701F70AF31FF02EB5
:102DDE00F12EF62EF209F309F20A0319F30A72081C
:102DEE0073040319FB2EFC2E2B2FF601F60A0A2F65
:102DFE0001300310F20DF30DFF3E031D002F0130C5
:102E0E00FF007F08F607F31F0D2F0E2FFF2E7308FE
:102E1E007502031D142F72087402031C172F182F2E
:102E2E001E2F7208F4027308031CF503F50201301D
:102E3E000310F30CF20CFF3E031D1F2F0130F602A0
:102E4E00031D2A2F2B2F0E2F770803192F2F302F0C
:102E5E00352FF409F509F40A0319F50A7508F3007C
:102E6E007408F2000800F3007308031D3F2F402F73
:102E7E00452F8312031306083F39982F3F308312D4
:102E8E0003130605F2003F30720603194F2F502F21
:102E9E005B2F6F080319542F552F5B2FEF01E9019C
:102EAE0006083F39EA00972F6F08031D5F2F602F2A
:102EBE00722F06083F396A06031D662F672F722F81
:102ECE001E30690203186C2F6D2F722F0130FF0018
:102EDE007F08E907972F1E306906031D772F782F7D
:102EEE007F2F0130FF007F08E9076A088038982F8E
:102EFE003F300605F2003F307206031D872F882FE4
:102F0E00972F6F08031D8C2F8D2F972FEF01EF0A30
:102F1E001E3069020318942F952F972F6A08982F49
:102F2E003F300800F701F31F9D2F9E2FA52FF209AA
:102F3E00F309F20A0319F30AF701F70AF51FA82F8E
:102F4E00A92FB22FF409F509F40A0319F50A013075
:102F5E00FF007F08F706F801F901720873040319E0
:102F6E00B92FBA2FF12FF601F60AC82F0130031030
:102F7E00F20DF30DFF3E031DBE2F0130FF007F0843
:102F8E00F607F31FCB2FCC2FBD2F01300310F80DFA
:102F9E00F90DFF3E031DCD2F73087502031DD92FAA
:102FAE0072087402031CDC2FDD2FE42F7208F4026A
:102FBE007308031CF503F502781401300310F30CAB
:102FCE00F20CFF3E031DE52F0130F602031DF02F1C
:102FDE00F12FCC2F77080319F52FF62FFB2FF809B9
:102FEE00F909F80A0319F90A7908F3007808F200CA
:022FFE000800C9
:02400E00FB3F76
:00000001FF
