:060000000A128A11FC2F18
:100F880083160313860108000A128A11C4270A125D
:100F98008A11FF308312031386005030F000C330EB
:100FA800F1000130F0020030031CF103F102700A75
:100FB800031DE22F710A031DE22FE32FD52F8312A1
:100FC800031386015030F200C330F3000130F202FF
:100FD8000030031CF303F302720A031DF72F730A90
:100FE800031DF72FF82FEA2FCD2F0A128A11002898
:080FF80083010A128A11C82FBF
:02400E00FB3F76
:00000001FF
